:10000000A5C21895189518951895189518951895CE
:10001000189552C0189518951895189534C01895CC
:10002000189518952DC21895189518951895189526
:10003000189518952502C1010000810040012C0689
:10004000A8950DE1009360000895FADF02E004BD79
:1000500005E005BD02E000936E0000E006BD03EC84
:1000600007BD00E00093B10009ED0093B20000E08D
:100070000093B00006E00093B100009170000160B1
:10008000009370000895FA93EA932A931A930A93BF
:100090002FB7E2ECF1E0008111810F5F1F4F008369
:1000A0001183A89501E00093C1012FBF0991199117
:1000B0002991E991F9911895FA93EA933A932A9341
:1000C0001A930A933FB705EF0093B200EDECF3E00B
:1000D000008111810F5F1F4F008311830091CF03B7
:1000E0000023E9F0EDECF3E000811181013D27E010
:1000F000120738F405B1102F15FF2D9A15FD2D9814
:100100000EC0EDECF3E000811181003A2FE0120700
:1001100030F000E010E0EDECF3E0008311833FBF2E
:100120000991199129913991E991F9911895539A69
:10013000559A569A579A259A39983A983C980FEFBB
:1001400005B90FEF08B90FEF0BB9089500E0009360
:10015000C10000E00093C0000091C200066000935F
:10016000C20000E00093C5000FE10093C40008E95D
:100170000093C100089517D2D8010A2F0B2BE1F08C
:1001800017C00C91E8ECF2E020813181F901E853CD
:10019000FD4F04831196E8ECF2E0008111810F5FBE
:1001A0001F4F40E051E0DFD1E8ECF2E040835183A3
:1001B000FD010081002329F7E4E0FAC1E8D121978D
:1001C00000E010E0E8ECF2E00283138300E010E0CE
:1001D000E8ECF2E00083118300E010E0E4ECF1E0F1
:1001E0000283138300E010E0E4ECF1E0008311836C
:1001F000DD24AA24A39400E0088380E090E0CC24CE
:1002000099249394FF24A0E0B0E0BB248824839435
:10021000EE24442455246624772400E010E0EDEC1D
:10022000F3E000831183F89482DF90DF0EDF78948F
:1002300000E411E0A0DF81C001E00093CF03AA2019
:1002400069F0992059F0882049F401E0601600E037
:10025000700624F00FE511E08EDF4AD1AA2069F084
:10026000992059F4882049F001E0601600E07006FA
:1002700024F00DE611E07FDF3BD1AA2069F0992040
:1002800059F4882049F401E0601600E0700624F07B
:100290000BE711E070DF2CD1AA2069F4992059F006
:1002A000882049F001E0601600E0700624F009E8BB
:1002B00011E061DF1DD1AA2069F4992059F088204E
:1002C00049F401E0601600E0700624F007E911E04F
:1002D00052DF0ED1AA2069F4992059F4882049F000
:1002E00001E0601600E0700624F005EA11E043DF4B
:1002F000FFD0AA2069F4992059F4882049F401E03C
:10030000601600E0700624F003EB11E034DFF0D05B
:1003100001E0601600E0700614F066247724009176
:10032000CC03002351F043E150E020E030E000ED49
:1003300013E04BD100E00093CC03E2ECF1E020812C
:100340003181243600E0300750F001E0600E00E01B
:10035000701E00E010E0E2ECF1E0008311830091F8
:10036000C101002309F453C000E00093C10100E083
:1003700031990395D01639F0DD243199D39480E07A
:1003800090E001E008830881002361F001969C0160
:10039000C901223300E0300729F400E00883AD2CC6
:1003A00080E090E000E032990395C01639F0CC244B
:1003B0003299C394A0E0B0E0FF24F394FF2059F0F9
:1003C00011969D01D901223300E0300721F4FF246A
:1003D0009C2CA0E0B0E000E034990395B01639F011
:1003E000BB243499B39444245524EE24E394EE20A2
:1003F00071F001E0400E00E0501E9201290122330D
:1004000000E0300721F4EE248B2C44245524AA204C
:1004100019F45B9A5D9803C0AA2009F05D9A9920AF
:1004200019F45B9A5E9803C0992009F05E9A8820BF
:1004300019F45B9A5F9803C0882009F05F9A8820BE
:1004400009F4FACE992009F4F7CEAA2009F4F4CEE3
:1004500000E00093CF0300E010E0EDECF3E0008358
:1004600011831BB10FEF0BB95B9801E0601600E040
:1004700070060CF4E4CE01E511E07DDE39D0DFCE6C
:10048000FA93EA934A933A932A931A930A934FB7AB
:100490000091C600023039F401E00093E40300E06B
:1004A0000093E5031CC0033051F400E00093E40323
:1004B00001E00093CC0300E00093E50310C010912D
:1004C000E403112361F02091E50330E0F901E053EA
:1004D000FC4F0083E5EEF3E00081039500834FBFFE
:1004E00009911991299139914991E991F9911895B9
:1004F0005CD01CC00091C000102F15FF17C0E8ECA5
:10050000F2E002811381F801E853FD4F048100936A
:10051000C600E8ECF2E08281938101968C0140E014
:1005200051E021D0E8ECF2E042835383E8ECF2E0C2
:1005300002811381E8ECF2E0208131810217130778
:10054000C9F6E2E037C000008895FECF0FE30DBF8B
:1005500001E00EBFC0E2D1E036D0002309F04CD05C
:100560002DDEF1DFF0CF00241124EFE0001F111F7A
:10057000001C111C0416150610F0041A150AEA9541
:10058000AAF7001F111FA001009510950895FA9277
:10059000EA92DA92CA92BA92AA929A928A927A923B
:1005A0006A925A924A92BA93AA939A938A93089516
:1005B000BB81AA8199818881F0E00FB6F894CE0FB3
:1005C000DF1F0FBE089501E00895F80101C02193D7
:1005D000BA0141505040672BD1F7089520E006D072
:1005E000E9F70895259102D0E9F708952D93015078
:1005F0001040202F212B089584E390E0FC01059109
:100600001491FC013296A591B491FC013496259188
:100610003491422F432B19F0F901E4DF01C0DEDFF2
:10062000069610E08034910748F3089548656C6C95
:100630006F2C41746D65676138380D0A002A3333B9
:1006400030312430243024300D0A002A3333303145
:100650002430243024310D0A002A33333031243041
:10066000243124300D0A002A333330312430243130
:1006700024310D0A002A3333303124312430243020
:100680000D0A002A333330312431243024310D0A4D
:10069000002A333330312431243124300D0A002A2A
:0D06A000333330312431243124310D0A0070
:00000001FF
:00000001FF
